{"abi":[{"type":"constructor","inputs":[{"name":"_aavePool","type":"address","internalType":"address"},{"name":"_depositToken","type":"address","internalType":"address"},{"name":"_aToken","type":"address","internalType":"address"}],"stateMutability":"nonpayable"},{"type":"function","name":"aToken","inputs":[],"outputs":[{"name":"","type":"address","internalType":"contract IAToken"}],"stateMutability":"view"},{"type":"function","name":"aavePool","inputs":[],"outputs":[{"name":"","type":"address","internalType":"contract IPool"}],"stateMutability":"view"},{"type":"function","name":"cancelStream","inputs":[{"name":"to","type":"address","internalType":"address"}],"outputs":[],"stateMutability":"nonpayable"},{"type":"function","name":"createStream","inputs":[{"name":"_recipient","type":"address","internalType":"address"},{"name":"_rate","type":"uint256","internalType":"uint256"}],"outputs":[],"stateMutability":"nonpayable"},{"type":"function","name":"deposit","inputs":[{"name":"_amount","type":"uint256","internalType":"uint256"}],"outputs":[],"stateMutability":"nonpayable"},{"type":"function","name":"depositToken","inputs":[],"outputs":[{"name":"","type":"address","internalType":"contract IERC20"}],"stateMutability":"view"},{"type":"function","name":"getBalance","inputs":[{"name":"_user","type":"address","internalType":"address"}],"outputs":[{"name":"res","type":"uint256","internalType":"uint256"}],"stateMutability":"view"},{"type":"function","name":"modifyStream","inputs":[{"name":"to","type":"address","internalType":"address"},{"name":"_rate","type":"uint256","internalType":"uint256"}],"outputs":[],"stateMutability":"nonpayable"},{"type":"function","name":"rugpull","inputs":[],"outputs":[],"stateMutability":"nonpayable"},{"type":"function","name":"streamInfo","inputs":[{"name":"","type":"bytes32","internalType":"bytes32"}],"outputs":[{"name":"rate","type":"uint216","internalType":"uint216"},{"name":"lastUpdate","type":"uint40","internalType":"uint40"}],"stateMutability":"view"},{"type":"function","name":"userDeposit","inputs":[{"name":"","type":"address","internalType":"address"}],"outputs":[{"name":"","type":"uint256","internalType":"uint256"}],"stateMutability":"view"},{"type":"function","name":"userLastDepositIndex","inputs":[{"name":"","type":"address","internalType":"address"}],"outputs":[{"name":"","type":"uint256","internalType":"uint256"}],"stateMutability":"view"},{"type":"function","name":"users","inputs":[{"name":"","type":"address","internalType":"address"}],"outputs":[{"name":"rate","type":"uint216","internalType":"uint216"},{"name":"lastUpdate","type":"uint40","internalType":"uint40"}],"stateMutability":"view"},{"type":"function","name":"withdrawStream","inputs":[{"name":"_sender","type":"address","internalType":"address"},{"name":"_destination","type":"address","internalType":"address"}],"outputs":[],"stateMutability":"nonpayable"},{"type":"error","name":"ReentrancyGuardReentrantCall","inputs":[]}],"bytecode":{"object":"0x6080604052348015600f57600080fd5b50604051610ea5380380610ea5833981016040819052602c91608d565b6001600081905580546001600160a01b039485166001600160a01b03199182161790915560028054938516938216939093179092556003805491909316911617905560c9565b80516001600160a01b0381168114608857600080fd5b919050565b60008060006060848603121560a157600080fd5b60a8846072565b925060b4602085016072565b915060c0604085016072565b90509250925092565b610dcd806100d86000396000f3fe608060405234801561001057600080fd5b50600436106100ea5760003560e01c8063a87430ba1161008c578063d1260edd11610066578063d1260edd1461023d578063e0b96e511461026b578063e2664e491461028b578063f8b2cb4f1461029357600080fd5b8063a87430ba146101de578063b6b55f2514610217578063c89039c51461022a57600080fd5b806347cc4d9d116100c857806347cc4d9d1461012a57806358d8efc11461013d578063a03e4bc3146101a0578063a0c1f15e146101cb57600080fd5b80630bf2b21a146100ef5780632b3e5862146101045780633df7fb8c14610117575b600080fd5b6101026100fd366004610bce565b6102a6565b005b610102610112366004610bf0565b610364565b610102610125366004610c23565b6105fa565b610102610138366004610c23565b6106c4565b61017661014b366004610c4d565b6007602052600090815260409020546001600160d81b03811690600160d81b900464ffffffffff1682565b604080516001600160d81b03909316835264ffffffffff9091166020830152015b60405180910390f35b6001546101b3906001600160a01b031681565b6040516001600160a01b039091168152602001610197565b6003546101b3906001600160a01b031681565b6101766101ec366004610bce565b6006602052600090815260409020546001600160d81b03811690600160d81b900464ffffffffff1682565b610102610225366004610c4d565b6106ed565b6002546101b3906001600160a01b031681565b61025d61024b366004610bce565b60046020526000908152604090205481565b604051908152602001610197565b61025d610279366004610bce565b60056020526000908152604090205481565b610102610a05565b61025d6102a1366004610bce565b610aaa565b6102ae610b88565b600033826040516020016102c3929190610c66565b60408051601f1981840301815291815281516020928301203360008181526006909452919092209192506102f79084610364565b60008281526007602052604081205482546001600160d81b03918216928492909161032491859116610ca3565b82546001600160d81b039182166101009390930a928302919092021990911617905550506000908152600760205260408120556103616001600055565b50565b60008282604051602001610379929190610c66565b60408051808303601f1901815291815281516020928301206001600160a01b03861660009081526006909352908220805491935091906103c790600160d81b900464ffffffffff1642610cc2565b82549091506000906103e39083906001600160d81b0316610cd5565b905060006103f087610aaa565b9050600082821115610426576104068383610cc2565b6001600160a01b038916600090815260046020526040902055504261048e565b845460009061043e906001600160d81b031684610d02565b8654909150610456906001600160d81b031684610d16565b6001600160a01b038a16600090815260046020526040902055855461048a908290600160d81b900464ffffffffff16610d2a565b9150505b6000868152600760205260408120546001600160d81b038116906104c090600160d81b900464ffffffffff1684610cc2565b6104ca9190610cd5565b86546001600160d81b0316600160d81b64ffffffffff85160217875560015460025460405163d15e005360e01b81526001600160a01b039182166004820152929350169063d15e005390602401602060405180830381865afa158015610534573d6000803e3d6000fd5b505050506040513d601f19601f820116820180604052508101906105589190610d3d565b6001600160a01b038a811660009081526005602052604090819020929092556001546002549251631a4ca37b60e21b81529282166004840152602483018490528a8216604484015216906369328dec906064016020604051808303816000875af11580156105ca573d6000803e3d6000fd5b505050506040513d601f19601f820116820180604052508101906105ee9190610d3d565b50505050505050505050565b6000338360405160200161060f929190610c66565b60408051601f19818403018152828252805160209182012083830183526001600160d81b03808716855264ffffffffff42811686850190815260008481526007865286812097519151909216600160d81b029083161790955533855260069092529183208054929450928592849261068991859116610d56565b82546101009290920a6001600160d81b03818102199093169183160217909155825416600160d81b4264ffffffffff16021790915550505050565b6106cc610b88565b6106d5826102a6565b6106df82826105fa565b6106e96001600055565b5050565b6000811161074f5760405162461bcd60e51b815260206004820152602560248201527f4465706f73697420616d6f756e74206d75737420626520677265617465722074604482015264068616e20360dc1b606482015260840160405180910390fd5b3360009081526004602052604081205490036107e65760015460025460405163d15e005360e01b81526001600160a01b03918216600482015291169063d15e005390602401602060405180830381865afa1580156107b1573d6000803e3d6000fd5b505050506040513d601f19601f820116820180604052508101906107d59190610d3d565b336000908152600560205260409020555b806107f033610aaa565b6107fa9190610d2a565b3360009081526004602081905260409182902092909255600154600254915163d15e005360e01b81526001600160a01b0392831693810193909352169063d15e005390602401602060405180830381865afa15801561085d573d6000803e3d6000fd5b505050506040513d601f19601f820116820180604052508101906108819190610d3d565b33600081815260056020526040908190209290925560025491516323b872dd60e01b81526004810191909152306024820152604481018390526001600160a01b03909116906323b872dd906064016020604051808303816000875af11580156108ee573d6000803e3d6000fd5b505050506040513d601f19601f820116820180604052508101906109129190610d75565b5060025460015460405163095ea7b360e01b81526001600160a01b0391821660048201526024810184905291169063095ea7b3906044016020604051808303816000875af1158015610968573d6000803e3d6000fd5b505050506040513d601f19601f8201168201806040525081019061098c9190610d75565b5060015460025460405163617ba03760e01b81526001600160a01b039182166004820152602481018490523060448201526000606482015291169063617ba03790608401600060405180830381600087803b1580156109ea57600080fd5b505af11580156109fe573d6000803e3d6000fd5b5050505050565b6000610a1033610aaa565b336000818152600460208190526040808320929092556001546002549251631a4ca37b60e21b81526001600160a01b039384169281019290925260248201859052604482019390935292935016906369328dec906064016020604051808303816000875af1158015610a86573d6000803e3d6000fd5b505050506040513d601f19601f820116820180604052508101906106e99190610d3d565b6001600160a01b0381166000908152600460205260408120548103610ad157506000919050565b6001600160a01b038281166000908152600560205260409081902054600154600254925163d15e005360e01b815292841660048401529092169063d15e005390602401602060405180830381865afa158015610b31573d6000803e3d6000fd5b505050506040513d601f19601f82011682018060405250810190610b559190610d3d565b6001600160a01b038416600090815260046020526040902054610b789190610cd5565b610b829190610d02565b92915050565b600260005403610bab57604051633ee5aeb560e01b815260040160405180910390fd5b6002600055565b80356001600160a01b0381168114610bc957600080fd5b919050565b600060208284031215610be057600080fd5b610be982610bb2565b9392505050565b60008060408385031215610c0357600080fd5b610c0c83610bb2565b9150610c1a60208401610bb2565b90509250929050565b60008060408385031215610c3657600080fd5b610c3f83610bb2565b946020939093013593505050565b600060208284031215610c5f57600080fd5b5035919050565b6bffffffffffffffffffffffff19606093841b811682529190921b16601482015260280190565b634e487b7160e01b600052601160045260246000fd5b6001600160d81b038281168282160390811115610b8257610b82610c8d565b81810381811115610b8257610b82610c8d565b8082028115828204841417610b8257610b82610c8d565b634e487b7160e01b600052601260045260246000fd5b600082610d1157610d11610cec565b500490565b600082610d2557610d25610cec565b500690565b80820180821115610b8257610b82610c8d565b600060208284031215610d4f57600080fd5b5051919050565b6001600160d81b038181168382160190811115610b8257610b82610c8d565b600060208284031215610d8757600080fd5b81518015158114610be957600080fdfea2646970667358221220ea65074fcce65c2756ff0d4dc53de29bd90d61330beb74cde5629917f3b8ba4164736f6c634300081a0033","linkReferences":{}},"methodIdentifiers":{"aToken()":"a0c1f15e","aavePool()":"a03e4bc3","cancelStream(address)":"0bf2b21a","createStream(address,uint256)":"3df7fb8c","deposit(uint256)":"b6b55f25","depositToken()":"c89039c5","getBalance(address)":"f8b2cb4f","modifyStream(address,uint256)":"47cc4d9d","rugpull()":"e2664e49","streamInfo(bytes32)":"58d8efc1","userDeposit(address)":"d1260edd","userLastDepositIndex(address)":"e0b96e51","users(address)":"a87430ba","withdrawStream(address,address)":"2b3e5862"},"id":30}